{
  "contractName": "GenericPayment",
  "abi": [
    {
      "anonymous": false,
      "inputs": [
        {
          "indexed": true,
          "internalType": "address",
          "name": "owner",
          "type": "address"
        }
      ],
      "name": "Initialized",
      "type": "event"
    },
    {
      "anonymous": false,
      "inputs": [
        {
          "indexed": true,
          "internalType": "address",
          "name": "previousOwner",
          "type": "address"
        },
        {
          "indexed": true,
          "internalType": "address",
          "name": "newOwner",
          "type": "address"
        }
      ],
      "name": "OwnershipTransferred",
      "type": "event"
    },
    {
      "anonymous": false,
      "inputs": [
        {
          "indexed": false,
          "internalType": "uint256",
          "name": "amount",
          "type": "uint256"
        },
        {
          "indexed": false,
          "internalType": "address",
          "name": "payer",
          "type": "address"
        },
        {
          "indexed": false,
          "internalType": "string",
          "name": "message",
          "type": "string"
        }
      ],
      "name": "Pay",
      "type": "event"
    },
    {
      "inputs": [],
      "name": "initialized",
      "outputs": [
        {
          "internalType": "bool",
          "name": "",
          "type": "bool"
        }
      ],
      "stateMutability": "view",
      "type": "function",
      "constant": true
    },
    {
      "inputs": [],
      "name": "owner",
      "outputs": [
        {
          "internalType": "address",
          "name": "",
          "type": "address"
        }
      ],
      "stateMutability": "view",
      "type": "function",
      "constant": true
    },
    {
      "inputs": [],
      "name": "renounceOwnership",
      "outputs": [],
      "stateMutability": "nonpayable",
      "type": "function"
    },
    {
      "inputs": [
        {
          "internalType": "address",
          "name": "newOwner",
          "type": "address"
        }
      ],
      "name": "transferOwnership",
      "outputs": [],
      "stateMutability": "nonpayable",
      "type": "function"
    },
    {
      "inputs": [
        {
          "internalType": "address",
          "name": "owner",
          "type": "address"
        }
      ],
      "name": "initialize",
      "outputs": [],
      "stateMutability": "nonpayable",
      "type": "function"
    },
    {
      "inputs": [
        {
          "internalType": "string",
          "name": "message",
          "type": "string"
        }
      ],
      "name": "pay",
      "outputs": [],
      "stateMutability": "payable",
      "type": "function",
      "payable": true
    },
    {
      "inputs": [
        {
          "internalType": "address payable",
          "name": "_account",
          "type": "address"
        }
      ],
      "name": "withdraw",
      "outputs": [],
      "stateMutability": "nonpayable",
      "type": "function"
    },
    {
      "inputs": [
        {
          "internalType": "address",
          "name": "_newContract",
          "type": "address"
        }
      ],
      "name": "upgradeContract",
      "outputs": [],
      "stateMutability": "nonpayable",
      "type": "function"
    }
  ],
  "bytecode": "0x608060405234801561001057600080fd5b5061002d61002261003260201b60201c565b61003a60201b60201c565b6100fe565b600033905090565b60008060009054906101000a900473ffffffffffffffffffffffffffffffffffffffff169050816000806101000a81548173ffffffffffffffffffffffffffffffffffffffff021916908373ffffffffffffffffffffffffffffffffffffffff1602179055508173ffffffffffffffffffffffffffffffffffffffff168173ffffffffffffffffffffffffffffffffffffffff167f8be0079c531659141344cd1fd0a4f28419497f9722a3daafe3b4186f6b6457e060405160405180910390a35050565b610ee78061010d6000396000f3fe60806040526004361061007b5760003560e01c80638da5cb5b1161004e5780638da5cb5b14610107578063c4d66de814610132578063eb2c02231461015b578063f2fde38b146101845761007b565b8063158ef93e146100805780632b66d72e146100ab57806351cff8d9146100c7578063715018a6146100f0575b600080fd5b34801561008c57600080fd5b506100956101ad565b6040516100a29190610748565b60405180910390f35b6100c560048036038101906100c091906108bd565b6101c0565b005b3480156100d357600080fd5b506100ee60048036038101906100e99190610964565b6101fe565b005b3480156100fc57600080fd5b5061010561027b565b005b34801561011357600080fd5b5061011c61028f565b60405161012991906109b2565b60405180910390f35b34801561013e57600080fd5b50610159600480360381019061015491906109f9565b6102b8565b005b34801561016757600080fd5b50610182600480360381019061017d91906109f9565b610372565b005b34801561019057600080fd5b506101ab60048036038101906101a691906109f9565b610386565b005b600060149054906101000a900460ff1681565b7f2425c6c914010f26f1adc441e4262a073da36ab2a88590ef6c1037899d5ee35c3433836040516101f393929190610ac7565b60405180910390a150565b610206610409565b60004790506000811161024e576040517f08c379a000000000000000000000000000000000000000000000000000000000815260040161024590610b51565b60405180910390fd5b610277818373ffffffffffffffffffffffffffffffffffffffff1661048790919063ffffffff16565b5050565b610283610409565b61028d600061057b565b565b60008060009054906101000a900473ffffffffffffffffffffffffffffffffffffffff16905090565b600060149054906101000a900460ff1615610308576040517f08c379a00000000000000000000000000000000000000000000000000000000081526004016102ff90610bbd565b60405180910390fd5b6001600060146101000a81548160ff02191690831515021790555061032c8161057b565b8073ffffffffffffffffffffffffffffffffffffffff167f908408e307fc569b417f6cbec5d5a06f44a0a505ac0479b47d421a4b2fd6a1e660405160405180910390a250565b61037a610409565b6103838161063f565b50565b61038e610409565b600073ffffffffffffffffffffffffffffffffffffffff168173ffffffffffffffffffffffffffffffffffffffff16036103fd576040517f08c379a00000000000000000000000000000000000000000000000000000000081526004016103f490610c4f565b60405180910390fd5b6104068161057b565b50565b6104116106f8565b73ffffffffffffffffffffffffffffffffffffffff1661042f61028f565b73ffffffffffffffffffffffffffffffffffffffff1614610485576040517f08c379a000000000000000000000000000000000000000000000000000000000815260040161047c90610cbb565b60405180910390fd5b565b804710156104ca576040517f08c379a00000000000000000000000000000000000000000000000000000000081526004016104c190610d27565b60405180910390fd5b60008273ffffffffffffffffffffffffffffffffffffffff16826040516104f090610d78565b60006040518083038185875af1925050503d806000811461052d576040519150601f19603f3d011682016040523d82523d6000602084013e610532565b606091505b5050905080610576576040517f08c379a000000000000000000000000000000000000000000000000000000000815260040161056d90610dff565b60405180910390fd5b505050565b60008060009054906101000a900473ffffffffffffffffffffffffffffffffffffffff169050816000806101000a81548173ffffffffffffffffffffffffffffffffffffffff021916908373ffffffffffffffffffffffffffffffffffffffff1602179055508173ffffffffffffffffffffffffffffffffffffffff168173ffffffffffffffffffffffffffffffffffffffff167f8be0079c531659141344cd1fd0a4f28419497f9722a3daafe3b4186f6b6457e060405160405180910390a35050565b61064881610700565b610687576040517f08c379a000000000000000000000000000000000000000000000000000000000815260040161067e90610e91565b60405180910390fd5b806106b47f360894a13ba1a3210667c828492db98dca3e2076cc3735a920a3ca505d382bbc60001b610723565b60000160006101000a81548173ffffffffffffffffffffffffffffffffffffffff021916908373ffffffffffffffffffffffffffffffffffffffff16021790555050565b600033905090565b6000808273ffffffffffffffffffffffffffffffffffffffff163b119050919050565b6000819050919050565b60008115159050919050565b6107428161072d565b82525050565b600060208201905061075d6000830184610739565b92915050565b6000604051905090565b600080fd5b600080fd5b600080fd5b600080fd5b6000601f19601f8301169050919050565b7f4e487b7100000000000000000000000000000000000000000000000000000000600052604160045260246000fd5b6107ca82610781565b810181811067ffffffffffffffff821117156107e9576107e8610792565b5b80604052505050565b60006107fc610763565b905061080882826107c1565b919050565b600067ffffffffffffffff82111561082857610827610792565b5b61083182610781565b9050602081019050919050565b82818337600083830152505050565b600061086061085b8461080d565b6107f2565b90508281526020810184848401111561087c5761087b61077c565b5b61088784828561083e565b509392505050565b600082601f8301126108a4576108a3610777565b5b81356108b484826020860161084d565b91505092915050565b6000602082840312156108d3576108d261076d565b5b600082013567ffffffffffffffff8111156108f1576108f0610772565b5b6108fd8482850161088f565b91505092915050565b600073ffffffffffffffffffffffffffffffffffffffff82169050919050565b600061093182610906565b9050919050565b61094181610926565b811461094c57600080fd5b50565b60008135905061095e81610938565b92915050565b60006020828403121561097a5761097961076d565b5b60006109888482850161094f565b91505092915050565b600061099c82610906565b9050919050565b6109ac81610991565b82525050565b60006020820190506109c760008301846109a3565b92915050565b6109d681610991565b81146109e157600080fd5b50565b6000813590506109f3816109cd565b92915050565b600060208284031215610a0f57610a0e61076d565b5b6000610a1d848285016109e4565b91505092915050565b6000819050919050565b610a3981610a26565b82525050565b600081519050919050565b600082825260208201905092915050565b60005b83811015610a79578082015181840152602081019050610a5e565b83811115610a88576000848401525b50505050565b6000610a9982610a3f565b610aa38185610a4a565b9350610ab3818560208601610a5b565b610abc81610781565b840191505092915050565b6000606082019050610adc6000830186610a30565b610ae960208301856109a3565b8181036040830152610afb8184610a8e565b9050949350505050565b7f47656e657269635061796d656e743a20302062616c616e636500000000000000600082015250565b6000610b3b601983610a4a565b9150610b4682610b05565b602082019050919050565b60006020820190508181036000830152610b6a81610b2e565b9050919050565b7f436f6e747261637420616c726561647920696e697469616c697a656400000000600082015250565b6000610ba7601c83610a4a565b9150610bb282610b71565b602082019050919050565b60006020820190508181036000830152610bd681610b9a565b9050919050565b7f4f776e61626c653a206e6577206f776e657220697320746865207a65726f206160008201527f6464726573730000000000000000000000000000000000000000000000000000602082015250565b6000610c39602683610a4a565b9150610c4482610bdd565b604082019050919050565b60006020820190508181036000830152610c6881610c2c565b9050919050565b7f4f776e61626c653a2063616c6c6572206973206e6f7420746865206f776e6572600082015250565b6000610ca5602083610a4a565b9150610cb082610c6f565b602082019050919050565b60006020820190508181036000830152610cd481610c98565b9050919050565b7f416464726573733a20696e73756666696369656e742062616c616e6365000000600082015250565b6000610d11601d83610a4a565b9150610d1c82610cdb565b602082019050919050565b60006020820190508181036000830152610d4081610d04565b9050919050565b600081905092915050565b50565b6000610d62600083610d47565b9150610d6d82610d52565b600082019050919050565b6000610d8382610d55565b9150819050919050565b7f416464726573733a20756e61626c6520746f2073656e642076616c75652c207260008201527f6563697069656e74206d61792068617665207265766572746564000000000000602082015250565b6000610de9603a83610a4a565b9150610df482610d8d565b604082019050919050565b60006020820190508181036000830152610e1881610ddc565b9050919050565b7f455243313936373a206e657720696d706c656d656e746174696f6e206973206e60008201527f6f74206120636f6e747261637400000000000000000000000000000000000000602082015250565b6000610e7b602d83610a4a565b9150610e8682610e1f565b604082019050919050565b60006020820190508181036000830152610eaa81610e6e565b905091905056fea2646970667358221220a1beefac2b9b10d90b1fa521d0ef08eca6216769150d3c74c9a33a3dee8d84c864736f6c634300080d0033",
  "immutableReferences": {},
  "source": "pragma solidity ^0.8.13;\n\nimport \"./ERC1967.sol\";\n\nimport \"@openzeppelin/contracts/access/Ownable.sol\";\nimport \"@openzeppelin/contracts/utils/Address.sol\";\n\ncontract GenericPayment is ERC1967, Ownable {\n    bool public initialized;\n\n    using Address for address payable;\n\n    event Initialized(address indexed owner);\n\n    event Pay(\n        uint256 amount,\n        address payer,\n        string message\n    );\n\n    function initialize(address owner) public {\n        require(!initialized, \"Contract already initialized\");\n        initialized = true;\n\n        _transferOwnership(owner);\n\n        emit Initialized(owner);\n    }\n\n    function pay(\n        string memory message\n    ) external payable {\n        emit Pay(msg.value, msg.sender, message);\n    }\n\n    function withdraw(address payable _account) external onlyOwner {\n        uint256 balance = address(this).balance;\n\n        require(balance > 0, \"GenericPayment: 0 balance\");\n        _account.sendValue(balance);\n    }\n\n    function upgradeContract(address _newContract) external onlyOwner {\n        _setImplementation(_newContract);\n    }\n}\n",
  "sourcePath": "/home/kubo/paima-cards/contracts/nft/src/GenericPayment.sol",
  "compiler": {
    "name": "solc",
    "version": "0.8.13+commit.abaa5c0e.Emscripten.clang"
  },
  "schemaVersion": "3.4.13",
  "updatedAt": "2023-08-14T11:39:13.009Z",
  "networkType": "ethereum",
  "devdoc": {
    "kind": "dev",
    "methods": {
      "owner()": {
        "details": "Returns the address of the current owner."
      },
      "renounceOwnership()": {
        "details": "Leaves the contract without owner. It will not be possible to call `onlyOwner` functions anymore. Can only be called by the current owner. NOTE: Renouncing ownership will leave the contract without an owner, thereby removing any functionality that is only available to the owner."
      },
      "transferOwnership(address)": {
        "details": "Transfers ownership of the contract to a new account (`newOwner`). Can only be called by the current owner."
      }
    },
    "version": 1
  },
  "userdoc": {
    "kind": "user",
    "methods": {},
    "version": 1
  }
}